:100000000C945F000C9487000C9487000C9487007C
:100010000C9487000C9487000C9487000C94870044
:100020000C9487000C9487000C9487000C94870034
:100030000C9487000C9487000C9487000C94870024
:100040000C9407030C9487000C94C6050C94F805D7
:100050000C9487000C9487000C9487000C94870004
:100060000C94DA010C9487000000000800020100E3
:100070000003040700000000000000000102040863
:100080001020408001020408102001020408102002
:10009000040404040404040402020202020203032E
:1000A0000303030300000000250028002B000000CC
:1000B0000000240027002A00A600AD012806112414
:1000C0001FBECFEFD8E0DEBFCDBF11E0A0E0B1E0B2
:1000D000ECE9FDE002C005900D92A032B107D9F71E
:1000E00022E0A0E2B1E001C01D92AB38B207E1F717
:1000F00010E0CEEBD0E004C02297FE010E94C806BB
:10010000C83BD107C9F70E9494060C94CC060C9406
:10011000000026E040E855E260E070E08EEE91E0FD
:100120000C94640561E082E00E944B0464E670E098
:1001300080E291E00E94E30060E082E00E944B04D4
:1001400060ED77E080E090E00C94740327E030E00D
:1001500046E050E065E070E080E291E00C94B00091
:10016000CF92DF92FF920F931F93CF93DF9300D034
:100170001F92CDB7DEB76C01F62E042F122F61E06F
:100180008F2D3B835A8379830E94120461E0802F74
:100190000E94120461E0812F0E941204F601F08295
:1001A0007981718302835A81538314833B81358320
:1001B0000F900F900F90DF91CF911F910F91FF90B3
:1001C000DF90CF900895EF92FF920F931F93CF93FC
:1001D000DF93EC017B0160E088810E944B0461E0C9
:1001E0008C810E944B0400E010E00E151F05BCF44A
:1001F00061E08A810E944B046FE070E080E090E053
:100200000E94740360E08A810E944B0465E070E004
:1002100080E090E00E9474030F5F1F4FE6CFDF91F4
:10022000CF911F910F91FF90EF900895809155010C
:1002300090E020915601821B91090895209156016A
:1002400080915501281750F4E22FF0E0E95AFE4F53
:10025000808190E02F5F2093560108958FEF9FEFEC
:100260000895E091560180915501E81730F4F0E0CF
:10027000E95AFE4F808190E008958FEF9FEF089537
:100280000895CF92DF92EF92FF920F931F93CF9337
:10029000DF937C01CB018A0120913201222389F076
:1002A000EB016B01C40ED51ECC15DD0569F069911B
:1002B000D701ED91FC910190F081E02DC7010995E6
:1002C000F3CF642F0E94B101C801DF91CF911F913C
:1002D0000F91FF90EF90DF90CF900895CF93DF9331
:1002E0001F92CDB7DEB76983209132012223D1F06E
:1002F00020913301203240F021E030E0FC013383D3
:10030000228380E090E015C080913401E82FF0E076
:10031000EB5CFE4F998190838F5F809334018093D3
:10032000330105C061E0CE0101960E94B10181E078
:1003300090E00F90DF91CF910895FC01138212821B
:1003400048EE53E060E070E0448355836683778332
:1003500084E091E091838083089586E291E00C949B
:100360009D01613298F42091E401243089F4609376
:100370009901FC018BE991E0DC012A2F281B26174B
:1003800018F421912D93F9CF80E0089581E008952C
:1003900082E0089585ED8093BC008091BC0084FDCF
:1003A000FCCF1092E401089585EC8093BC0010927C
:1003B000E40108951F920F920FB60F9211242F930C
:1003C0003F934F935F936F937F938F939F93AF93DD
:1003D000BF93EF93FF938091B900887F803609F433
:1003E0009EC078F5883209F45DC090F4803109F43C
:1003F00056C038F4882309F4F5C0883009F44FC09A
:10040000F5C0883109F44EC0803209F45FC0EEC0F7
:10041000803409F46AC058F4803309F457C0883333
:1004200009F0E4C0809377010E94D401DFC08035D9
:1004300009F44FC0883509F45DC0883409F0D6C08E
:10044000D3C0883909F4C4C0A8F4883709F467C058
:1004500038F4883609F463C0803709F460C0C6C038
:10046000883809F4B5C0803909F45FC0803809F0D4
:10047000BDC05BC0803B09F483C038F4803A09F406
:1004800066C0883A09F47CC0B1C0803C09F4A4C0BD
:10049000883C09F4A1C0883B09F487C0A7C08091BB
:1004A000E30110C09091BC018091BB01981770F5D9
:1004B000E091BC0181E08E0F8093BC01F0E0E35439
:1004C000FE4F80818093BB0085EC83C080937701D1
:1004D0008BC0E091BC0181E08E0F8093BC018091C4
:1004E000BB00F0E0E354FE4F80839091BC0180910B
:1004F000BB016BC0E091BC0181E08E0F8093BC0119
:100500008091BB00F0E0E354FE4F80838091E201D4
:1005100081116AC081E08093E10184EA5EC083E0DA
:100520008093E40110927801CFCF809178018032DE
:1005300008F04EC0E091780181E08E0F8093780141
:100540008091BB00F0E0E758FE4F8083BDCF0E9452
:10055000D40180917801803230F4E0917801F0E0AC
:10056000E758FE4F10826091780170E0E091DD0164
:10057000F091DE0189E791E009951092780136C08B
:1005800084E08093E40110929A0110929901E09125
:10059000DF01F091E001099580919901811105C079
:1005A00081E08093990110929B01E0919A0181E092
:1005B0008E0F80939A01F0E0E556FE4F8081809384
:1005C000BB0090919A0180919901981708F47CCF13
:1005D00085E88093BC000AC085EC8093BC00109233
:1005E000E40104C0109277010E94CA01FF91EF91CB
:1005F000BF91AF919F918F917F916F915F914F913B
:100600003F912F910F900FBE0F901F9018951F9242
:100610000F920FB60F9211242F933F938F939F93B6
:10062000AF93BF938091E6019091E701A091E8011B
:10063000B091E9013091E50123E0230F2D3720F43B
:100640000196A11DB11D05C026E8230F0296A11D2C
:10065000B11D2093E5018093E6019093E701A093FB
:10066000E801B093E9018091EA019091EB01A0913A
:10067000EC01B091ED010196A11DB11D8093EA013D
:100680009093EB01A093EC01B093ED01BF91AF917A
:100690009F918F913F912F910F900FBE0F901F90C0
:1006A00018953FB7F8948091EA019091EB01A091E1
:1006B000EC01B091ED0126B5A89B05C02F3F19F0C4
:1006C0000196A11DB11D3FBF6627782F892F9A2F54
:1006D000620F711D811D911D42E0660F771F881FFB
:1006E000991F4A95D1F708958F929F92AF92BF922A
:1006F000CF92DF92EF92FF926B017C010E94510337
:100700004B015C01C114D104E104F104F1F00E9439
:10071000A3060E945103681979098A099B09683E5A
:1007200073408105910570F321E0C21AD108E108F8
:10073000F10888EE880E83E0981EA11CB11CC1143C
:10074000D104E104F10429F7DDCFFF90EF90DF90B1
:10075000CF90BF90AF909F908F900895789484B57C
:10076000826084BD84B5816084BD85B5826085BDAD
:1007700085B5816085BDEEE6F0E080818160808393
:10078000E1E8F0E010828081826080838081816076
:100790008083E0E8F0E0808181608083E1EBF0E03D
:1007A000808184608083E0EBF0E0808181608083E1
:1007B000EAE7F0E0808184608083808182608083CA
:1007C0008081816080838081806880831092C100F5
:1007D0000895833081F028F4813099F08230A1F0BF
:1007E00008958730A9F08830B9F08430D1F4809131
:1007F00080008F7D03C0809180008F778093800080
:10080000089584B58F7702C084B58F7D84BD089527
:100810008091B0008F7703C08091B0008F7D80936E
:10082000B0000895CF93DF9390E0FC01E458FF4FB0
:100830002491FC01E057FF4F8491882349F190E017
:10084000880F991FFC01E255FF4FA591B4918C557B
:100850009F4FFC01C591D4919FB7611108C0F894D6
:100860008C91209582238C93888182230AC06230E8
:1008700051F4F8948C91322F309583238C93888196
:10088000822B888304C0F8948C91822B8C939FBF19
:10089000DF91CF9108950F931F93CF93DF931F9212
:1008A000CDB7DEB7282F30E0F901E859FF4F84912A
:1008B000F901E458FF4F1491F901E057FF4F0491FB
:1008C0000023C9F0882321F069830E94E90369812C
:1008D000E02FF0E0EE0FFF1FEC55FF4FA591B49114
:1008E0009FB7F8948C91611103C01095812301C0CA
:1008F000812B8C939FBF0F90DF91CF911F910F9110
:100900000895FC01818D228D90E0805C9F4F821BB9
:1009100091098F7399270895FC01918D828D981705
:1009200031F0828DE80FF11D858D90E008958FEFF5
:100930009FEF0895FC01918D828D981761F0828D53
:10094000DF01A80FB11D5D968C91928D9F5F9F7303
:10095000928F90E008958FEF9FEF08958EE196E0DB
:10096000892B49F080E090E0892B29F00E941E0637
:1009700081110C9400000895FC01848DDF01A80F03
:10098000B11DA35ABF4F2C91848D90E001968F73B7
:100990009927848FA689B7892C93A089B1898C91D6
:1009A00080648C93938D848D981306C00288F3899C
:1009B000E02D80818F7D80830895CF93DF93EC01BC
:1009C000888D8823C9F0EA89FB89808185FD05C06F
:1009D000A889B9898C9186FD0FC00FB607FCF5CFA9
:1009E000808185FFF2CFA889B9898C9185FFEDCFF1
:1009F000CE010E94BC04E7CFDF91CF910895CF9242
:100A0000DF92FF920F931F93CF93DF931F92CDB787
:100A1000DEB76C0181E0D60158968C9358975B96AF
:100A20009C915B975C968C915C97981307C050964D
:100A3000ED91FC915197808185FD2EC0F601038DCB
:100A400010E00F5F1F4F0F731127F02EF601848DFA
:100A5000F81211C00FB607FCF9CFD6015096ED91F0
:100A6000FC915197808185FFF1CFC60169830E9477
:100A7000BC046981EBCF838DE80FF11DE35AFF4F72
:100A80006083D6015B960C935B975296ED91FC9137
:100A90005397808180620CC0D6015696ED91FC91EF
:100AA000579760835096ED91FC91519780818064B7
:100AB000808381E090E00F90DF91CF911F910F91A3
:100AC000FF90DF90CF900895BF92CF92DF92EF9288
:100AD000FF92CF93DF93EC016A017B01B22EE8898C
:100AE000F98982E08083411581EE5807610571051F
:100AF000A1F060E079E08DE390E0A70196010E940B
:100B0000A406215031094109510956954795379559
:100B10002795211580E1380798F0E889F989108236
:100B200060E874E88EE190E0A70196010E94A406B7
:100B30002150310941095109569547953795279517
:100B4000EC85FD853083EE85FF852083188EEC894A
:100B5000FD89B082EA89FB89808180618083EA898E
:100B6000FB89808188608083EA89FB898081806835
:100B70008083EA89FB8980818F7D8083DF91CF919B
:100B8000FF90EF90DF90CF90BF9008951F920F924B
:100B90000FB60F9211242F938F939F93EF93FF9390
:100BA000E091FE01F091FF018081E0910402F0915B
:100BB000050282FD12C09081809107028F5F8F73C2
:100BC00020910802821751F0E0910702F0E0E25113
:100BD000FE4F958F8093070201C08081FF91EF91B6
:100BE0009F918F912F910F900FBE0F901F9018958E
:100BF0001F920F920FB60F9211242F933F934F9392
:100C00005F936F937F938F939F93AF93BF93EF9374
:100C1000FF938EEE91E00E94BC04FF91EF91BF9193
:100C2000AF919F918F917F916F915F914F913F9184
:100C30002F910F900FBE0F901F9018958EEE91E0A0
:100C40000E94810421E0892B09F420E0822F08957D
:100C50001092F1011092F00188EE93E0A0E0B0E074
:100C60008093F2019093F301A093F401B093F50106
:100C700084E191E09093EF018093EE0185EC90E0A8
:100C80009093FB018093FA0184EC90E09093FD0136
:100C90008093FC0180EC90E09093FF018093FE0133
:100CA00081EC90E0909301028093000282EC90E04E
:100CB000909303028093020286EC90E090930502E9
:100CC0008093040210920702109208021092090207
:100CD00010920A020895CF92DF92EF92FF920F9343
:100CE0001F93CF93DF937C016A01EB0100E010E0DA
:100CF0000C151D0571F06991D701ED91FC910190E2
:100D0000F081E02DC7010995892B19F00F5F1F4F66
:100D1000EFCFC801DF91CF911F910F91FF90EF901E
:100D2000DF90CF90089508950E94AE030E9493062D
:100D30000E948900CEEAD4E00E9492002097E1F35D
:100D40000E94AE04F9CF0895A1E21A2EAA1BBB1B84
:100D5000FD010DC0AA1FBB1FEE1FFF1FA217B30787
:100D6000E407F50720F0A21BB30BE40BF50B661F9D
:100D7000771F881F991F1A9469F760957095809561
:100D800090959B01AC01BD01CF010895EE0FFF1FAF
:0C0D90000590F491E02D0994F894FFCF39
:100D9C00000000006E01410116011E0131014001ED
:100DAC0000000000FF046B0681049A048C04DD042F
:00000001FF
